:020000023000CC
:10E000008CC0000009C1000007C1000005C100006C
:10E0100003C1000001C10000FFC00000FDC00000FE
:10E02000FBC00000F9C00000F7C00000F5C0000010
:10E03000F3C00000F1C00000EFC00000EDC0000020
:10E04000EBC00000E9C00000E7C00000E5C0000030
:10E05000E3C00000E1C00000DFC00000DDC0000040
:10E06000DBC00000D9C00000D7C00000D5C0000050
:10E07000D3C00000D1C00000CFC00000CDC0000060
:10E08000CBC00000C9C00000C7C00000C5C0000070
:10E09000C3C00000C1C00000BFC00000BDC0000080
:10E0A000BBC00000B9C00000B7C00000B5C0000090
:10E0B000B3C00000B1C00000AFC00000ADC00000A0
:10E0C000ABC00000A9C00000A7C00000A5C00000B0
:10E0D000A3C00000A1C000009FC000009DC00000C0
:10E0E0009BC0000000050000496E76616C696420E9
:10E0F000696D6167652066696C6500000500004513
:10E1000072726F72000005000346756C6C000005AA
:10E1100000044F70636F64653F0011241FBECFEF92
:10E12000D1E2DEBFCDBF01E00CBF12E0A0E0B2E063
:10E13000EEE5FFEE03E00BBF02C007900D92AA319F
:10E14000B107D9F722E0AAE1B2E001C01D92A732DF
:10E15000B207E1F701D001C714BE88E10FB6F89409
:10E1600080936000109260000FBE2FEF83EC99E067
:10E17000215080409040E1F700C00000112484E06D
:10E18000809381008ED3A1D0ADD009D1C82F882330
:10E1900029F09BD285E08093260203C081E0809322
:10E1A00026021092240210922502D3E0C12CD12C19
:10E1B000760180912402882329F08091250288230A
:10E1C00059F006C0CC23C9F383D28111F6CF1FC00A
:10E1D000C3D3811105C019C08AD38111F9CF17C0EB
:10E1E00080912502811105C08091240281110DC00A
:10E1F0000EC0813051F4F601E0925B00D0935700DD
:10E20000E89563D2A0D3109225027CD3D2CFEE271B
:10E21000FF27099480E090E0F3CE20E52CBD2C98F8
:10E2200020EF2EBD0DB407FEFDCF292F33272EBDC5
:10E230000DB407FEFDCF8EBD0DB407FEFDCF6EBD44
:10E240000DB407FEFDCF2C9A1CBC08950F931F93AD
:10E25000CF93DF938C01EB01672F7727DEDF6C2FE5
:10E26000C8010196DF91CF911F910F91D6CF20E584
:10E270002CBD2C982FE02EBD0DB407FEFDCF292F0D
:10E2800033272EBD0DB407FEFDCF8EBD0DB407FEA6
:10E29000FDCF1EBC0DB407FEFDCF2C9A8EB51CBC65
:10E2A00008951F93CF93DF93EC01E1DF182FCE0188
:10E2B0000196DDDF212F30E0322F2227A901482BE4
:10E2C000CA01DF91CF911F9108958FE085B987E052
:10E2D00084B92C9A249AA59A9D9A2F9A279A81E01C
:10E2E0008DBD0895EF92FF920F931F93CF93DF930D
:10E2F000CDB7DEB7AC97DEBFCDBF46E150E069EEEB
:10E300007FE0CE01479602D68BA59CA5892BF1F420
:10E3100086E1E0E0F2E0DE01119601900D928A952F
:10E32000E1F76AE0CE0101962DD39E8B8D8B46E1FD
:10E3300050E069EE7FE0CE010196F8D546E150E06D
:10E3400069EE7FE0CE014796E1D506C06BE0CE01D5
:10E35000479618D3892BE1F689A59AA590932302B5
:10E360008093220260E880E090E057DFCE0147967C
:10E370007C0100E010E0F70161917F010F5F1F4F0A
:10E38000C8014BDF02311105B1F7AC96DEBFCDBF3E
:10E39000DF91CF911F910F91FF90EF90089560E171
:10E3A00080E090E03ADF80E090E061DF803191F43E
:10E3B00062E180E090E031DF80E090E058DF823180
:10E3C00049F460E080E090E028DF80E090E04FDFFB
:10E3D00091E0811190E0892F0895CF93DF93EC01B4
:10E3E00060E181E097E019DFBE0184E097E02EDF75
:10E3F00062E080E097E011DF61E081E097E00DDF0F
:10E4000083E097E034DF823221F060E181E097E041
:10E4100004DF83E097E02BDF823231F7DF91CF9189
:10E4200008953F924F925F926F927F928F929F9248
:10E43000AF92BF92CF92DF92EF92FF920F931F9312
:10E44000CF93DF93CDB7DEB7CD50D240DEBFCDBF87
:10E4500088E297E026DF009711F480E098E78E01CC
:10E460000F5F1F4F6E0123EFC21A2DEFD20A0C155A
:10E470001D0589F07C01EFEFEE1AFE0AF8DEF801C7
:10E4800081938F01E114F0E8FF0619F4E12C68E7AD
:10E49000F62EC701ECCFBC0188E297E0D7DE60E43E
:10E4A00081E097E0BADE81E097E0E1DE8111FBCF09
:10E4B000CE0101967C010CE017E0F70161917F012C
:10E4C000C801ABDE0F5F1F4F0231F7E01F07A9F74E
:10E4D0000F8110E0102F00278885080F111D298556
:10E4E00030E0322F22278A85280F311D8B8590E05E
:10E4F000982F88274C85840F911D2330310589F48E
:10E50000893F21E0920770F520911A0230911B0299
:10E510008217930738F12F5F3F4F2817390710F103
:10E520001DC005301240F0F42430310590F4223043
:10E530003105C1F480912202909123024EDF1092A6
:10E540001B0210921A0210921D0210921C0262E02D
:10E55000A5C02630310530F460E0A0C00530E2E00F
:10E560001E0710F061E09AC00450110990931D023B
:10E5700080931C0201976C01E12CF12CF9E0CC0C8A
:10E58000DD1CEE1CFF1CFA95D1F7EE24FF24880F4A
:10E59000892F881F990B9195A0E0B0E0DC019927A5
:10E5A0008827C82AD92AEA2AFB2AD701C601800F60
:10E5B000911FA11DB11D8130904FA340B10508F0FE
:10E5C0006CC00115F2E01F0710F464E001C062E0C6
:10E5D000002319F00F5F1F4FFBCFC114D104E104DA
:10E5E000F10469F4CE010D96C35FDD4F6883CD5011
:10E5F000D24043D1C35FDD4F6881CD50D240DE01B0
:10E600001D9620E030E0332433942601370181E069
:10E61000581A6108710883E095E071E1201731070D
:10E6200008F03CC046015701820E931EA11CB11C8C
:10E63000E1E0F0E0EC0FFD1FE20FF31F458550E035
:10E64000542F4427EC914E2B0A01F401A0925B0059
:10E6500030925700E89511242E5F3F4F21111BC0C7
:10E6600053014201820E931EA11CB11CF401A09221
:10E670005B0080935700E89507B600FCFDCFF401DE
:10E68000A0925B0090935700E89507B600FCFDCF81
:10E6900070935700E8951296C1CF63E0862FC35F51
:10E6A000DD4FDEBFCDBFDF91CF911F910F91FF9066
:10E6B000EF90DF90CF90BF90AF909F908F907F9022
:10E6C0006F905F904F903F90089585E490E085CEE5
:10E6D000AF92BF92CF92DF92EF92FF920F931F9370
:10E6E000CF93DF93CDB7DEB7C456D109DEBFCDBF20
:10E6F00086E297E0D6DD811528E0920741F480910B
:10E7000022029091230269DE86E297E0CADD9770CB
:10E71000892B09F494C081E08093250214D181DE15
:10E72000F82E84E297E0BDDD8C01185A33E0F31631
:10E7300081F13F1540F081E0F816F1F0E2E0FE16BD
:10E7400009F441C007C0F4E0FF1609F44BC025E00E
:10E75000F21661F14BEF50EE60E070E06D5F7F4FBD
:10E760002AE030E0CE010196C7D38AE0FE0131965F
:10E770006F01E82EEE0E52C04EE051EE60E070E008
:10E780006D5F7F4F2CE030E0CE010196B5D38CE079
:10E79000EDCF45E051EE60E070E06D5F7F4F29E026
:10E7A00030E0CE010196A8D389E0E0CF44EE50EEF0
:10E7B00060E070E06D5F7F4F27E130E0CE010196B1
:10E7C0009BD387E1D3CF80911C0290911D022091B1
:10E7D0001A0230911B022817390720F490931B026C
:10E7E00080931A02198284E08A8380911C0290919E
:10E7F0001D029B838C8384E0B9CFF60161916F0188
:10E800005801FFEFAF1ABF0AC80107DDA11420E6C7
:10E81000B20619F4A12CE8E5BE2E8501EC10EDCF6F
:10E82000B801785584E297E011DD60E281E097E07D
:10E83000F4DC81E097E01BDD8111FBCF02C072E0C8
:10E84000F72E8CEF8F0D823040F460E181E097E08D
:10E85000E4DC1092250280E001C081E0CC59DF4F5A
:10E86000DEBFCDBFDF91CF911F910F91FF90EF9051
:10E87000DF90CF90BF90AF90089520E030E0FC0192
:10E88000E20FF31F40814C3051F44181443939F497
:10E890002C5F3F4F2433310591F781E0089580E0EC
:10E8A000089582E08093C00088E18093C10086E0F3
:10E8B0008093C20080E18093C40008959091C000CD
:10E8C00095FFFCCF8093C60008958F708A3008F0C2
:10E8D000895F805DF3CF8091C00087FFFCCF80917E
:10E8E000C00084FD01C0A8958091C6000895809164
:10E8F000C00087FF05C027D081E08093240258C064
:10E9000081E00895809184009091850093FF04C078
:10E9100025B1205825B901C02F98209120023091AF
:10E9200021028217930750F420911E0230911F029A
:10E930002F5F3F4F30931F0220931E0290932102BE
:10E940008093200208951092850010928400109206
:10E950001F0210921E02089580E090E0DC01ABBF20
:10E96000FC0187919691019659F02091260230E0A2
:10E9700081E040911E0250911F024217530708F494
:10E9800080E0089540E050E020E030E070E046177D
:10E99000570748F4DC01ED91FD91CD012E0F3F1F8B
:10E9A0004F5F5F4FF4CF88279927821B930B089501
:10E9B0002F923F924F925F926F927F928F929F928F
:10E9C000AF92BF92CF92DF92EF92FF920F931F937D
:10E9D000CF93DF93CDB7DEB7C052D140DEBFCDBFFE
:10E9E000C25EDE4F1882CE51D140812C212C312CB9
:10E9F000412C512C3201C12CD12C760100E010E0C9
:10EA000040E0C15EDE4F4883CF51D14064DFC15E3C
:10EA1000DE4F4881CF51D140433001F120F44130E5
:10EA200071F038F014C0453021F1E0F0463091F13A
:10EA30007CC08B3131F78BE1882E41E0E2CF882614
:10EA4000C25EDE4F8883CE51D14042E0DACF082F3C
:10EA500010E0102F0027882643E0D3CF082B88260C
:10EA600044E0CFCF8E3061F68826212C312C45E052
:10EA7000C8CF91012F5F3F4FE1E0F0E0EC0FFD1FA9
:10EA8000E20DF31D808388262017310709F431C277
:10EA90001901B7CF8811B4CF4981433109F4E2C0DD
:10EAA00060F5463009F4CBC000F5423009F441C0AE
:10EAB000433009F46BC0413009F09DC11A8288E0EF
:10EAC0008B8381E48C8386E58D8382E58E8389E464
:10EAD0008F8383E5888780E589878FE58A8782E34E
:10EAE0008B8720E00BE010E08BC1413109F45BC063
:10EAF00008F09CC04031E9F07EC1483109F46EC095
:10EB000048F4453109F4AEC008F425C1463109F492
:10EB100022C171C14A3109F454C008F475C04B31A7
:10EB200009F444C04D3139F066C1473009F4B4CF1F
:10EB300068CF20E039C08D81803339F49F819923DB
:10EB4000B1F09130B1F498E917C0982F907599F011
:10EB5000803521F499E0E0E0F0E005C0883559F413
:10EB6000E3E0F0E099E090935700949105C09EE1B6
:10EB700003C091E001C090E01A821B828C831D8249
:10EB80009E831F8220E007E010E03AC1EA81E0594D
:10EB9000E33028F4F0E0EA5EFD4F808101C080E0C0
:10EBA0001A828B833FC021E01A8228C18D8188237D
:10EBB00021F0813021F488E924C08EE122C081E077
:10EBC00020C01A82E1E0F0E089E080935700E491F0
:10EBD000EB831C8220E004E010E012C18B818035C1
:10EBE00051F48C81883019F4E2E0F0E006C089E04D
:10EBF000E0E0F0E003C0E3E0F0E089E0809357005C
:10EC000084911A828B83E5CF8D81836C99E0E1E05A
:10EC1000F0E0082E90935700E89507B600FCFDCF72
:10EC20001A821B8220E003E010E0EAC080EC8A83B5
:10EC300020E002E010E0412C512C3201E1C08A8139
:10EC4000CB80D12CE12CF12C7601DD24CC24F82AC8
:10EC50008D81C82A8C81D82ACC0CDD1CEE1CFF1CAF
:10EC60001A82CBC08A8190E0982F88272B81822B33
:10EC7000433109F045C04114F0EC5F06F3E06F0644
:10EC8000710470F423E0F20160925B00209357005E
:10EC9000E89507B600FCFDCF4FEF541A640A740ADA
:10ECA0004B85460157019E01255F3F4FD9011296C2
:10ECB0009D01FD013197608150E0562B61E00A0112
:10ECC000F401A0925B0060935700E8951124E2E004
:10ECD0008E0E911CA11CB11C0297009711F04C9153
:10ECE000E5CF85E0F601E0925B0080935700E89560
:10ECF00007B600FCFDCF81E180935700E89527C05F
:10ED0000FE013B969C01B701A60141BD852E962EC2
:10ED1000A72EBB2482BC4F5F5F4F6F4F7F4FA191E7
:10ED2000A0BDFA9AF99AF999FECF2150310921151F
:10ED3000310559F701974C01A12CB12CFFEF8F1A27
:10ED40009F0AAF0ABF0A8C0C9D1CAE1CBF1C1A8206
:10ED50007501640152C02A8130E0322F22278B8155
:10ED6000282B89010D5F1F4F1A824431B1F4DE0157
:10ED70001396EBBEF601879196918C931296FD0146
:10ED80003197908342E0C40ED11CE11CF11C22504B
:10ED900031092115310569F72BC0CE0103965C01BD
:10EDA0004901D701C60181BD492F5A2F6B2F772703
:10EDB00042BD0196A11DB11DF89A40B5F5014193E0
:10EDC0005F01F1E08F1A91088114910461F7C90184
:10EDD0000197A0E0B0E00196A11DB11DC80ED91E9B
:10EDE000EA1EFB1EA3E0B0E0AC0FBD1FA20FB31FD5
:10EDF0001C9220E005C080EC8A8320E002E010E055
:10EE00008BE1C05EDE4F2883C052D14057DDC25E29
:10EE1000DE4F8881CE51D14051DDA12EBB248A2DF9
:10EE20004DDD802F4BDD8EE049DD25E1822EC25E77
:10EE3000DE4F4881CE51D140842680268A24CE01DF
:10EE400001965C01080F191FC05EDE4F2881C05279
:10EE5000D140A016B106B1F0F50131915F01832FC9
:10EE6000C05EDE4F2883C052D140C15EDE4F388382
:10EE7000CF51D14023DDC15EDE4F3881CF51D1402B
:10EE80008326E2CF882DC05EDE4F2883C052D1405A
:10EE900015DDC25EDE4F4881CE51D1404F5FC25E6C
:10EEA000DE4F4883CE51D140C05EDE4F2881C05234
:10EEB000D140222309F4A2CD000081E180935700C4
:10EEC000E89580E0C05EDE4FDEBFCDBFDF91CF9121
:10EED0001F910F91FF90EF90DF90CF90BF90AF9078
:10EEE0009F908F907F906F905F904F903F902F906A
:10EEF0000895180146E085CD6BBFFA01DC0102C020
:10EF000007900D9221503040D8F70895DC01CB01D5
:10EF1000FC01F999FECF06C0F2BDE1BDF89A319629
:10EF200000B40D9241505040B8F70895DC01CB0178
:10EF300002C02D9105D041505040D8F70895262F9A
:10EF4000F999FECF1FBA92BD81BD20BD0FB6F894CE
:0EEF5000FA9AF99A0FBE01960895F894FFCF31
:10EF5E00C0A80001FFFFFF00123456789ABCC0A86B
:0AEF6E00007879B700000F020A00D6
:040000033000E000E9
:00000001FF
