:107000000FC100007FC100007DC100007BC10000F6
:1070100079C1000077C1000075C1000073C1000094
:1070200071C100006FC100006DC100006BC10000A4
:1070300069C1000067C1000065C1000063C10000B4
:1070400061C100005FC100005DC100005BC10000C4
:1070500059C1000057C1000055C1000053C10000D4
:1070600051C100004FC10000546674703A200050B6
:10707000726F63657373696E67207061636B6574AB
:10708000206F662073697A6520004F766572666CA2
:107090006F77005365742075702072657475726E19
:1070A0002061646472657373005468697320697346
:1070B00020626C6F636B20002077697468206F70AA
:1070C000636F6465200020616E64206461746120D8
:1070D0006C656E677468200052656164207265712A
:1070E0007565737400577269746520726571756592
:1070F0007374004461746120626C6F636B00436859
:10710000616E67656420746F20706F727420004632
:107110006C6173682069732066756C6C00577269C6
:1071200074696E6720646174612066726F6D20619E
:1071300064647265737320005061636B6574206CC6
:10714000656E6774682061646A7573746564207421
:107150006F2000466C617368696E6720636F6D70A5
:107160006C6574650041636B6E6F776C6564676511
:10717000004572726F7200496E76616C6964206FAF
:1071800070636F6465200053656E742041434B004B
:1071900053656E742046696E616C2041434B00520A
:1071A0006573706F6E73652073656E74005446541A
:1071B000502073657276657220696E697420646F01
:1071C0006E65000944617461506F72743A20004921
:1071D0006E697420736F636B657420746F20706FB9
:1071E00072742000000500044F70636F64653F00F7
:1071F0000005000346756C6C0000050000457272C6
:107200006F720000050000496E76616C6964206948
:107210006D6167652066696C65000D0A0030780055
:1072200011241FBECFEFD8E0DEBFCDBF11E0A0E03C
:10723000B1E0E6E8FFE702C005900D92A631B10784
:10724000D9F711E0A6E1B1E001C01D92A632B10765
:10725000E1F701D096C614BE88E10FB6F89480938A
:107260006000109260000FBE80ED97E020E931E0F1
:10727000F9013197F1F70197D9F7112484E0809350
:10728000810091D49DD0D9D0B7D0182F882319F080
:1072900067D185E001C081E0809325011092230130
:1072A0001092240103E0C0E0D0E080912301882304
:1072B00029F4112319F023D38823F9F080912401B4
:1072C000882319F497D48823C1F0C9D4882399F06E
:1072D00080912401882329F480912301882359F483
:1072E0000CC0813041F4FE0100935700E89538D17D
:1072F000ADD41092240189D4D8CFEE27FF2709946A
:1073000080E090E07DCE9C0180E58CBD2A9880EFE6
:107310008EBD0DB407FEFDCF832F99278EBD0DB412
:1073200007FEFDCF2EBD0DB407FEFDCF6EBD0DB423
:1073300007FEFDCF2A9A1CBC0895EF92FF920F938F
:107340001F938C017B01672F7727C801DCDFC80101
:1073500001966E2DD8DF1F910F91FF90EF90089549
:107360009C0180E58CBD2A988FE08EBD0DB407FE90
:10737000FDCF832F99278EBD0DB407FEFDCF2EBD07
:107380000DB407FEFDCF1EBC0DB407FEFDCF2A9A3B
:107390008EB51CBC0895EF92FF920F931F938C0142
:1073A000DFDFE82EC8010196DBDFFF24FE2CEE2490
:1073B00090E08E299F291F910F91FF90EF900895E3
:1073C0008CE385B98CE284B95C9A549A81E08DBDD6
:1073D0000895F999FECF92BD81BDF89A80B50895C0
:1073E000F999FECF1FBA92BD81BD60BD0FB6F8946A
:1073F000FA9AF99A0FBE089580E090E060E183DF89
:1074000080E090E0ADDF8031A9F480E090E062E1BF
:107410007ADF80E090E0A4DF823161F480E090E0E8
:1074200060E071DF80E090E09BDF90E0882319F45A
:1074300091E001C090E0892F0895EF92FF920F93A1
:107440001F93DF93CF93CDB7DEB7AC97DEBFCDBF31
:107450008E010F5F1F4FC80169EE73E046E150E0F7
:1074600029EE39E323D58D899E89892B29F0C8011E
:107470006BE00CD4892B11F1DE015796E0E0F1E0CE
:1074800086E101900D928150E1F78E01095E1F4F58
:10749000C8016AE0FBD39CA78BA789EE93E0B801F3
:1074A00046E150E020EF39E31BD5CE01019669EEAD
:1074B00073E046E150E029EE39E3F8D48B899C89EA
:1074C000909322018093210180E090E060E81BDF2F
:1074D0007E010894E11CF11C01E010E0C801F701F5
:1074E00061917F0110DF0F5F1F4F03311105B1F76D
:1074F000AC96DEBFCDBFCF91DF911F910F91FF9072
:10750000EF900895CF93DF93EC0188E690E76FEC5E
:1075100071E737D3BE0180E090E044E0F8D281E02B
:1075200097E060E1F0DE84E097E0BE0106DF80E0F6
:1075300097E062E0E8DE81E097E061E0E4DE83E08E
:1075400097E00EDF823221F081E097E060E1DBDE40
:1075500083E097E005DF823231F7DF91CF91089524
:107560000F931F9385E490E0CDDF08E610E7C80194
:107570006DEA71E706D3C80163EC71E702D360914D
:1075800021017091220180E090E044E0C0D21F917F
:107590000F910895AF92BF92CF92DF92EF92FF9238
:1075A0000F931F93DF93CF93CDB7DEB7CC50D2406C
:1075B000DEBFCDBF8C0188E690E76FE670E7E1D2D1
:1075C000B80180E090E044E0A2D20050184028F0DA
:1075D00088E690E76AE870E7D4D288E297E0DBDEDD
:1075E000BC01009711F460E078E77E010894E11C8B
:1075F000F11C5DE0C52E52E0D52ECC0EDD1E11C073
:107600008B010F5F1F4FCB01ABDEF7018083F0E8EA
:1076100000301F0711F400E018E70894E11CF11C8A
:10762000B801EC14FD0461F788E297E086DE81E0A2
:1076300097E060E468DE81E097E092DE8823D9F786
:107640007E010894E11CF11C0CE017E0C801F70171
:1076500061917F0158DE0F5F1F4FF7E002311F0776
:10766000A9F788E690E763E970E78BD28F8190E015
:10767000B82EAA248885A80EB11C898590E0182F01
:1076800000278A85080F111D8B8590E0F82EEE24C7
:107690008C85E80EF11C88E690E769EA70E771D204
:1076A000B70180E090E044E032D288EB90E71DD251
:1076B000B80180E090E044E02AD286EC90E715D251
:1076C0008CEFC82E8FEFD82ECA0CDB1CB60180E0E1
:1076D00090E044E01CD20330110589F429E3E2165E
:1076E000F10458F48091180190911901E816F906F7
:1076F00020F001968E159F0510F400E010E085E063
:10770000A81682E0B80618F000E010E0DCC00330F4
:107710001105B9F10430110548F40130110509F4DF
:10772000CDC00230110509F0CEC009C004301105EA
:1077300009F4B8C00530110509F0C5C0B8C088E625
:1077400090E765EE70E71DD28091210190912201B2
:10775000D9DE88E690E76EEF70E713D260912101E1
:107760007091220180E090E044E0D1D110921901A3
:10777000109218011092170110921601B2E0FB2E20
:10778000AEC088E690E763EF70E7FBD1F092170197
:10779000E0921601870101501040102F0027110FB1
:1077A000C8018C0D9D1D8150904740F088E690E700
:1077B0006FE071E7E6D1F3E0FF2E91C088E690E735
:1077C0006DE171E7DED1B80180E090E046E09FD145
:1077D000F0E0CF16F2E0DF0618F0E2E0FE2E06C081
:1077E00074E0F72E03C00894C11CD11CC6018F772A
:1077F0009070892BC1F788E690E768E371E7C1D103
:10780000B60180E090E044E082D10115110559F005
:10781000DE011D9640E050E0BB24B39463E0E62E09
:1078200075E061E133C0CE010D9641D1882381F727
:1078300035E0F32E54C011968C91119790E0982F5B
:1078400088272C9130E0822B932BF8010C01B09209
:107850005700E89511244E5F5F4FCA018F779070F3
:10786000892B89F4EE57F040E0925700E89507B66F
:1078700000FCFDCF70935700E89507B600FCFDCFE4
:1078800060935700E89512960E5F1F4F4C155D05EB
:1078900090F2F4E0FF1619F588E690E763E571E7EA
:1078A00070D11DC088E690E765E671E704C088E600
:1078B00090E761E771E765D1FF2411C088E690E7A2
:1078C00068ED70E75ED188E690E767E771E759D128
:1078D000B80180E090E044E01AD1FF24F3948F2DAA
:1078E000C45FDD4FDEBFCDBFCF91DF911F910F9100
:1078F000FF90EF90DF90CF90BF90AF900895CF9220
:10790000DF92EF92FF920F931F93DF93CF93CDB748
:10791000DEB7C456D040DEBFCDBF86E297E03BDD88
:1079200028E08030920741F480912101909122015A
:10793000E9DD86E297E02FDD8C0117700115110556
:1079400019F412E0C12E9AC081E0809324017ED107
:10795000C80120DEC82E84E297E01DDD8C0183E0A3
:10796000C81659F18C1538F0E1E0CE16E1F0F2E0DE
:10797000CF1641F436C024E0C21609F446C085E0B3
:10798000C81629F1CE01019669EF71E74AE050E08F
:1079900084D2BAE0DB2EC8018050984A7E01089458
:1079A000E11CF11C46C0CE01019664EE71E74CE08B
:1079B00050E073D2ACE0DA2EEECFCE01019660EF4C
:1079C00071E749E050E069D2F9E0DF2EE4CFCE0163
:1079D000019663E072E747E150E05FD2E7E1DE2E17
:1079E000DACF209116013091170180911801909102
:1079F00019018217930720F430931901209318017D
:107A000088E690E767E871E704C088E690E760E9F8
:107A100071E7B7D0198284E08A83209116013091F2
:107A20001701832F99278B832C8364E0D62EB3CF45
:107A3000C8018C010F5F1F4FF701608164DCF0E625
:107A400000301F0711F400E018E50894E11CF11C58
:107A5000DA9471F70050184584E297E0B8016DDCC4
:107A600081E097E060E24FDC81E097E079DC8823F9
:107A7000D9F788E690E76FE971E783D02CEFC20E63
:107A800081E08C1538F081E097E060E13CDC1092F9
:107A9000240180E0CC59DF4FDEBFCDBFCF91DF9115
:107AA0001F910F91FF90EF90DF90CF900895FC0110
:107AB00090E080818C3049F48181843931F49C5F7D
:107AC00034969433B1F781E0089580E00895CF9320
:107AD000DF93EC018881882311F404C071D089916F
:107AE0008823E1F7DF91CF9108951F93CF93DF9320
:107AF000EC0110E0FE01E10FF11D8491882319F0E3
:107B00005FD01F5FF7CFDF91CF911F910895CF9284
:107B1000DF92EF92FF921F936B017C01142F8DE196
:107B200092E7E3DF14C0812F90E00197880F991F3F
:107B3000880F991FA701960104C056954795379560
:107B400027958A95D2F7DA01C90142D01150112345
:107B500051F71F91FF90EF90DF90CF900895EF9233
:107B6000FF920F931F938C017B018AE192E7BDDFA7
:107B7000C801BBDFC701ABDF1F910F91FF90EF90F2
:107B80000895EF92FF920F931F938C017B018AE17E
:107B900092E7ABDFC801A9DFC701A7DF1F910F91F3
:107BA000FF90EF90089582E08093C00088E1809379
:107BB000C10086E08093C20080E18093C4000895F4
:107BC000982F8091C00085FFFCCF9093C600089548
:107BD0008F708A3008F0895F805DF2CF8091C0009D
:107BE00087FFFCCF8091C00084FD01C0A8958091E3
:107BF000C60008958091C00087FD02C081E008950D
:107C000025D081E0809323016AC0209184003091C7
:107C1000850033FF05C085B190E2892785B901C091
:107C20002D9880911C0190911D012817390748F467
:107C300080911A0190911B01019690931B018093F2
:107C40001A0130931D0120931C01089510928500A4
:107C50001092840010921B0110921A010895E0E026
:107C6000F0E0859194918F5F9F4F11F440E00CC03C
:107C700040E08091250190E020911A0130911B0194
:107C80002817390708F041E0842F0895FC0140E0EF
:107C900050E020E030E070E006C081919191480F03
:107CA000591F2F5F3F4F26173707B8F388279927AB
:107CB000841B950B089592DF803239F088E1809320
:107CC000600088E080936000FFCF84E179CF1F934C
:107CD000182F84DF1150E9F7EEDF1F910895EF921E
:107CE000FF920F931F93DF93CF93CDB7DEB7C050B2
:107CF000D140DEBFCDBF72DF813461F46FDF182F5A
:107D0000DADF123811F484E003C0113811F183E096
:107D100057DFB4C0823411F484E103C0853419F410
:107D200084E0D5DFABC0853581F458DF082F10E043
:107D300055DF90E0982F8827802B912B880F991F73
:107D400090931F0180931E0198C0863521F484E032
:107D5000BEDF80E0DDCF843609F062C03FDF3EDF6A
:107D6000809320013BDFE0911E01F0911F019E01F5
:107D70002F5F3F4F80E7E030F80720F483E08093E7
:107D80005700E89589012ADFF80181938F018091DE
:107D900020018150809320018823A9F7E0911E01E2
:107DA000F0911F0120E7E030F20720F083E080939C
:107DB0005700E89580DF07B600FCFDCF60911E01FB
:107DC00070911F01AB017E010894E11CF11C11E0D0
:107DD000DE01AF57BF4FF701208130E0818190E095
:107DE000982F8827822B932B22E030E0E20EF31E9F
:107DF000FA010C0110935700E89511244E5F5F4F74
:107E0000EA16FB0641F785E0FB0180935700E895F1
:107E100007B600FCFDCF81E180935700E8952EC0A6
:107E20008437D9F4DBDEDADE80932001D7DE43DF4E
:107E3000E0911E01F0911F013196F0931F01E09334
:107E40001E013197E4918E2FBBDE8091200181507D
:107E500080932001882361F711C0853739F42BDF27
:107E60008EE1AEDE85E9ACDE8FE052CF813529F4BC
:107E700022DF80E1A5DE80E005C01DDF80E1A0DE1D
:107E8000E5DE81E0C050DF4FDEBFCDBFCF91DF9197
:107E90001F910F91FF90EF900895FB01DC0102C04C
:107EA00005900D9241505040D8F70895A0E0B0E001
:107EB000EBE5FFE339C07C01EB018A01690109C0F0
:107EC000CE012196F6010995F70181937F010150BA
:107ED000104001151105A1F7CDB7DEB7E8E040C0AD
:107EE000A0E0B0E0E5E7FFE31FC0EC017B018A0101
:107EF000690109C0CE012196F70161917F01F60168
:107F000009950150104001151105A1F7CDB7DEB755
:107F1000E8E026C02F923F924F925F926F927F923D
:107F20008F929F92AF92BF92CF92DF92EF92FF9289
:107F30000F931F93CF93DF93CDB7DEB7CA1BDB0B35
:107F40000FB6F894DEBF0FBECDBF09942A883988DA
:107F500048885F846E847D848C849B84AA84B984E1
:107F6000C884DF80EE80FD800C811B81AA81B981ED
:107F7000CE0FD11D0FB6F894DEBF0FBECDBFED0101
:067F80000895F894FFCF04
:107F8600C0A80001FFFFFF00123456789ABCC0A8B3
:067F9600007879B700003D
:040000030000700089
:00000001FF
