:107000004EC00000BEC00000BCC00000BAC00000FE
:10701000B8C00000B6C00000B4C00000B2C000009C
:10702000B0C00000AEC00000ACC00000AAC00000AC
:10703000A8C00000A6C00000A4C00000A2C00000BC
:10704000A0C000009EC000009CC000009AC00000CC
:1070500098C0000096C0000094C0000092C00000DC
:1070600090C000008EC00000000500044F70636FE8
:1070700064653F000005000346756C6C0000050068
:10708000004572726F720000050000496E76616CF7
:10709000696420696D6167652066696C650011240B
:1070A0001FBECFEFD8E0DEBFCDBF11E0A0E0B1E062
:1070B000E4EAFBE702C005900D92A631B107D9F7CB
:1070C00011E0A6E1B1E001C01D92A632B107E1F7DF
:1070D00001D066C514BE88E10FB6F89480936000B5
:1070E000109260000FBE80ED97E020E931E0F901D9
:1070F0003197F1F70197D9F7112484E0809381004B
:1071000061D39DD0D9D0B7D0182F882319F05DD185
:1071100085E001C081E08093250110922301109247
:10712000240103E0C0E0D0E080912301882329F40A
:10713000112319F071D28823F9F08091240188235A
:1071400019F467D38823C1F099D3882399F08091EB
:107150002401882329F480912301882359F40CC049
:10716000813041F4FE0100935700E8952ED17DD384
:107170001092240159D3D8CFEE27FF27099480E03D
:1071800090E03ECF9C0180E58CBD2A9880EF8EBDBB
:107190000DB407FEFDCF832F99278EBD0DB407FEDA
:1071A000FDCF2EBD0DB407FEFDCF6EBD0DB407FEA5
:1071B000FDCF2A9A1CBC0895EF92FF920F931F9364
:1071C0008C017B01672F7727C801DCDFC80101969E
:1071D0006E2DD8DF1F910F91FF90EF9008959C01C5
:1071E00080E58CBD2A988FE08EBD0DB407FEFDCFE3
:1071F000832F99278EBD0DB407FEFDCF2EBD0DB494
:1072000007FEFDCF1EBC0DB407FEFDCF2A9A8EB53A
:107210001CBC0895EF92FF920F931F938C01DFDF48
:10722000E82EC8010196DBDFFF24FE2CEE2490E05F
:107230008E299F291F910F91FF90EF9008958CE365
:1072400085B98CE284B95C9A549A81E08DBD089529
:10725000F999FECF92BD81BDF89A80B50895F9994C
:10726000FECF1FBA92BD81BD60BD0FB6F894FA9AE9
:10727000F99A0FBE089580E090E060E183DF80E03E
:1072800090E0ADDF8031A9F480E090E062E17ADF48
:1072900080E090E0A4DF823161F480E090E060E083
:1072A00071DF80E090E09BDF90E0882319F491E0AB
:1072B00001C090E0892F0895EF92FF920F931F93E2
:1072C000DF93CF93CDB7DEB7AC97DEBFCDBF8E01D6
:1072D0000F5F1F4FC80169EE73E046E150E028E2FE
:1072E00039E3F3D38D899E89892B29F0C8016BE09E
:1072F000DCD2892B11F1DE015796E0E0F1E086E166
:1073000001900D928150E1F78E01095E1F4FC80177
:107310006AE0CBD29CA78BA789EE93E0B80146E147
:1073200050E02FE239E3EBD3CE01019669EE73E032
:1073300046E150E028E239E3C8D38B899C899093D9
:1073400022018093210180E090E060E81BDF7E0154
:107350000894E11CF11C01E010E0C801F701619103
:107360007F0110DF0F5F1F4F03311105B1F7AC969E
:10737000DEBFCDBFCF91DF911F910F91FF90EF90B6
:107380000895CF93DF93EC0181E097E060E1FADEAE
:1073900084E097E0BE0110DF80E097E062E0F2DE7B
:1073A00081E097E061E0EEDE83E097E018DF823273
:1073B00021F081E097E060E1E5DE83E097E00FDF18
:1073C000823231F7DF91CF91089585E490E0D9CFF3
:1073D000BF92CF92DF92EF92FF920F931F93DF93B2
:1073E000CF93CDB7DEB7CC50D240DEBFCDBF88E261
:1073F00097E010DFBC01009711F460E078E77E01B0
:107400000894E11CF11C4DE0C42E42E0D42ECC0EB9
:10741000DD1E11C08B010F5F1F4FCB01E0DEF701B6
:107420008083F0E800301F0711F400E018E70894AB
:10743000E11CF11CB801EC14FD0461F788E297E04F
:10744000BBDE81E097E060E49DDE81E097E0C7DE8F
:107450008823D9F77E010894E11CF11C0CE017E0A9
:10746000C801F70161917F018DDE0F5F1F4FF7E0CB
:1074700002311F07A9F78F8190E0F82FEE2788854A
:10748000E80FF11D898590E0782F66278A85680FBF
:10749000711D8B8590E0582F44278C85480F511D16
:1074A0006330710589F44933510560F42091180166
:1074B000309119014217530728F02F5F3F4F2417CF
:1074C000350710F460E070E022E0E530F20708F0E4
:1074D00092C063307105F1F06430710528F46230B8
:1074E000710509F088C006C06630710508F083C0D8
:1074F000DD2483C0809121019091220142DF10920E
:10750000190110921801109217011092160112E041
:10751000D12E73C0BCEFEB2EBFEFFB2EEE0EFF1E85
:1075200050931701409316018A0101501040102F0B
:107530000027110FC8018E0D9F1D8150904718F034
:10754000F3E0DF2E5AC0F0E0EF16F2E0FF0618F08D
:10755000E2E0DE2E06C074E0D72E03C00894E11CE2
:10756000F11CC7018F779070892BC1F701151105A8
:1075700059F0DE011D9640E050E0BB24B39463E077
:10758000C62E75E061E133C0CE010D960BD1882384
:1075900081F735E0D32E31C011968C91119790E090
:1075A000982F88272C9130E0822B932BF8010C0127
:1075B000B0925700E89511244E5F5F4FCA018F7754
:1075C0009070892B89F4EE57F040C0925700E895EF
:1075D00007B600FCFDCF70935700E89507B600FC96
:1075E000FDCF60935700E89512960E5F1F4F4E1522
:1075F0005F0590F202C0DD24D3948D2DC45FDD4F72
:10760000DEBFCDBFCF91DF911F910F91FF90EF9023
:10761000DF90CF90BF900895CF92DF92EF92FF92CC
:107620000F931F93DF93CF93CDB7DEB7C456D040EF
:10763000DEBFCDBF86E297E0EDDD28E08030920727
:1076400041F480912101909122019BDE86E297E036
:10765000E1DD9770892B19F4B2E0CB2E8AC081E06E
:107660008093240102D1B4DEC82E84E297E0D2DDFB
:107670008C0183E0C81659F18C1538F0E1E0CE1684
:10768000E1F0F2E0CF1641F436C024E0C21609F46E
:1076900041C085E0C81629F1CE0101966DE770E77B
:1076A0004AE050E009D2AAE0DA2EC8018050984A98
:1076B0007E010894E11CF11C3CC0CE01019668E6F5
:1076C00070E74CE050E0F8D1FCE0DF2EEECFCE01C9
:1076D000019664E770E749E050E0EED1E9E0DE2E84
:1076E000E4CFCE01019667E870E747E150E0E4D1CE
:1076F00077E1D72EDACF20911601309117018091D2
:107700001801909119018217930720F43093190101
:1077100020931801198284E08A8320911601309108
:107720001701832F99278B832C8354E0D52EBDCF4F
:10773000C8018C010F5F1F4FF701608123DDF0E668
:1077400000301F0711F400E018E50894E11CF11C5B
:10775000DA9471F70050184584E297E0B8012CDD07
:1077600081E097E060E20EDD81E097E038DD88237C
:10777000D9F72CEFC20E81E08C1538F081E097E04C
:1077800060E100DD1092240180E0CC59DF4FDEBFC4
:10779000CDBFCF91DF911F910F91FF90EF90DF90C0
:1077A000CF900895FC0190E080818C3049F4818174
:1077B000843931F49C5F34969433B1F781E00895B5
:1077C00080E0089582E08093C00088E18093C1004A
:1077D00086E08093C20080E18093C4000895982FD2
:1077E0008091C00085FFFCCF9093C60008958F70F4
:1077F0008A3008F0895F805DF2CF8091C00087FFFA
:10780000FCCF8091C00084FD01C0A8958091C60086
:1078100008958091C00087FD02C081E0089525D0C1
:1078200081E0809323016AC020918400309185001B
:1078300033FF05C085B190E2892785B901C02D9835
:1078400080911C0190911D012817390748F48091FF
:107850001A0190911B01019690931B0180931A01CC
:1078600030931D0120931C01089510928500109201
:10787000840010921B0110921A010895E0E0F0E0DC
:10788000859194918F5F9F4F11F440E00CC040E0D0
:107890008091250190E020911A0130911B01281759
:1078A000390708F041E0842F0895FC0140E050E0E2
:1078B00020E030E070E006C081919191480F591F9F
:1078C0002F5F3F4F26173707B8F388279927841B68
:1078D000950B089592DF803239F088E18093600043
:1078E00088E080936000FFCF84E179CF1F93182F49
:1078F00084DF1150E9F7EEDF1F910895EF92FF92B8
:107900000F931F93DF93CF93CDB7DEB7C050D14015
:10791000DEBFCDBF72DF813461F46FDF182FDADF95
:10792000123811F484E003C0113811F183E057DFFD
:10793000B4C0823411F484E103C0853419F484E0C6
:10794000D5DFABC0853581F458DF082F10E055DF57
:1079500090E0982F8827802B912B880F991F909368
:107960001F0180931E0198C0863521F484E0BEDF9C
:1079700080E0DDCF843609F062C03FDF3EDF8093D8
:1079800020013BDFE0911E01F0911F019E012F5F5E
:107990003F4F80E7E030F80720F483E08093570002
:1079A000E89589012ADFF80181938F0180912001F8
:1079B0008150809320018823A9F7E0911E01F09166
:1079C0001F0120E7E030F20720F083E080935700AA
:1079D000E89580DF07B600FCFDCF60911E01709135
:1079E0001F01AB017E010894E11CF11C11E0DE01D6
:1079F000AF57BF4FF701208130E0818190E0982F91
:107A00008827822B932B22E030E0E20EF31EFA014E
:107A10000C0110935700E89511244E5F5F4FEA1652
:107A2000FB0641F785E0FB0180935700E89507B618
:107A300000FCFDCF81E180935700E8952EC084378C
:107A4000D9F4DBDEDADE80932001D7DE43DFE0917C
:107A50001E01F0911F013196F0931F01E0931E016A
:107A60003197E4918E2FBBDE80912001815080936D
:107A70002001882361F711C0853739F42BDF8EE1AF
:107A8000AEDE85E9ACDE8FE052CF813529F422DF0E
:107A900080E1A5DE80E005C01DDF80E1A0DEE5DE3F
:107AA00081E0C050DF4FDEBFCDBFCF91DF911F918E
:107AB0000F91FF90EF900895FB01DC0102C005904B
:107AC0000D9241505040D8F70895A0E0B0E0EAE6AA
:107AD000FDE339C07C01EB018A01690109C0CE01D7
:107AE0002196F6010995F70181937F01015010401D
:107AF00001151105A1F7CDB7DEB7E8E040C0A0E061
:107B0000B0E0E4E8FDE31FC0EC017B018A016901FC
:107B100009C0CE012196F70161917F01F601099517
:107B20000150104001151105A1F7CDB7DEB7E8E00F
:107B300026C02F923F924F925F926F927F928F92C8
:107B40009F92AF92BF92CF92DF92EF92FF920F93EC
:107B50001F93CF93DF93CDB7DEB7CA1BDB0B0FB6F6
:107B6000F894DEBF0FBECDBF09942A8839884888B3
:107B70005F846E847D848C849B84AA84B984C88449
:107B8000DF80EE80FD800C811B81AA81B981CE0F40
:107B9000D11D0FB6F894DEBF0FBECDBFED01089525
:047BA000F894FFCF87
:107BA400C0A80001FFFFFF00123456789ABCC0A899
:067BB400007879B7000023
:040000030000700089
:00000001FF
