:020000023000CC
:10E00000EEC1000076C2000074C2000072C20000BF
:10E0100070C200006EC200006CC200006AC2000044
:10E0200068C2000066C2000064C2000062C2000054
:10E0300060C200005EC200005CC200005AC2000064
:10E0400058C2000056C2000054C2000052C2000074
:10E0500050C200004EC200004CC200004AC2000084
:10E0600048C2000046C2000044C2000042C2000094
:10E0700040C200003EC200003CC200003AC20000A4
:10E0800038C2000036C2000034C2000032C20000B4
:10E0900030C200002EC200002CC200002AC20000C4
:10E0A00028C2000026C2000024C2000022C20000D4
:10E0B00020C200001EC200001CC200001AC20000E4
:10E0C00018C2000016C2000014C2000012C20000F4
:10E0D00010C200000EC200000CC200000AC2000004
:10E0E00008C20000537461727420757365722061F8
:10E0F00070700041726961646E6520666F722041C4
:10E10000726475696E6F204D656761323536302CEB
:10E110002056657273696F6E20302E35004D61692F
:10E120006E3A20004E6574776F726B20696E697469
:10E1300020646F6E650009202020204D41433A2065
:10E140000009476174657761793A200009205375A9
:10E15000626E65743A200009416464726573733AB3
:10E1600020004275696C742D696E20736574746942
:10E170006E677300454550524F4D20736574746946
:10E180006E677300204E65743A2000000500004958
:10E190006E76616C696420696D6167652066696C83
:10E1A0006500000500004572726F720000050003F3
:10E1B00046756C6C00000500044F70636F64653F2A
:10E1C00000206174206F6666736574200057726961
:10E1D00074696E6720004279746573206C6566749B
:10E1E000200052656164696E672066726F6D2070F1
:10E1F0006F736974696F6E200072656164506F6936
:10E200006E74657220617420706F736974696F6ECB
:10E2100020000D0A00496E697420736F636B65748A
:10E2200020746F20706F7274200009446174615013
:10E230006F72743A200054465450207365727665AC
:10E240007220696E697420646F6E65005265737028
:10E250006F6E73652073656E740053656E7420462F
:10E26000696E616C2041434B0053656E74204143DD
:10E270004B00496E76616C6964206F70636F6465F2
:10E2800020004572726F720041636B6E6F776C6530
:10E2900064676500466C617368696E6720636F6DC3
:10E2A000706C657465005061636B6574206C656E9D
:10E2B0006774682061646A757374656420746F2084
:10E2C0000057726974696E672064617461206672B8
:10E2D0006F6D20616464726573732000466C6173B6
:10E2E000682069732066756C6C004368616E6765B1
:10E2F0006420746F20706F72742000446174612018
:10E30000626C6F636B00577269746520726571751A
:10E31000657374005265616420726571756573740C
:10E320000020616E642064617461206C656E6774A6
:10E330006820002077697468206F70636F646520BF
:10E34000005468697320697320626C6F636B2000EE
:10E350005365742075702072657475726E206164E7
:10E360006472657373004F766572666C6F770050E8
:10E37000726F63657373696E67207061636B657438
:10E38000206F662073697A652000546674703A20A5
:10E390000020696E7374656164206F66203078397F
:10E3A000340020696E7374656164206F6620307874
:10E3B000304300207769746820004661696C6564A9
:10E3C000206174200056616C696420696D61676525
:10E3D0000056616C643A20003078000D0A00112468
:10E3E0001FBECFEFD1E2DEBFCDBF01E00CBF12E018
:10E3F000A0E0B2E0E4E8F7EF03E00BBF02C0079053
:10E400000D92AA31B107D9F722E0AAE1B2E001C02A
:10E410001D92A732B207E1F702D00D94C0FB14BEE3
:10E4200088E10FB6F89480936000109260000FBEF0
:10E430002FEF83EC99E0215080409040E1F700C03D
:10E440000000112484E0809381003ED663EF70EEDB
:10E450008DE191EEE0D5A6D0B2D081D1C82F88232E
:10E4600029F060D485E08093260203C081E0809388
:10E4700026021092240210922502D3E0C12CD12C46
:10E48000760180912402882329F080912502882337
:10E4900059F006C0CC23C9F35AD48111F6CF1FC05E
:10E4A0006ED6811105C019C035D68111F9CF17C0BC
:10E4B00080912502811105C08091240281110DC037
:10E4C0000EC0813051F4F601E0925B00D09357000A
:10E4D000E89528D44BD61092250227D6D2CF64EEE9
:10E4E00070EE8DE191EE97D5EE27FF27099480E03D
:10E4F00090E086CD20E52CBD2C9820EF2EBD0DB4EC
:10E5000007FEFDCF292F33272EBD0DB407FEFDCF0B
:10E510008EBD0DB407FEFDCF6EBD0DB407FEFDCF61
:10E520002C9A1CBC08950F931F93CF93DF938C01FB
:10E53000EB01672F7727DEDF6C2FC8010196DF9193
:10E54000CF911F910F91D6CF20E52CBD2C982FE0B5
:10E550002EBD0DB407FEFDCF292F33272EBD0DB4E0
:10E5600007FEFDCF8EBD0DB407FEFDCF1EBC0DB462
:10E5700007FEFDCF2C9A8EB51CBC08951F93CF9338
:10E58000DF93EC01E1DF182FCE010196DDDF212FB3
:10E5900030E0322F2227A901482BCA01DF91CF9109
:10E5A0001F9108958FE085B987E084B92C9A249A49
:10E5B000A59A9D9A2F9A279A81E08DBD0895DF92A2
:10E5C000EF92FF920F931F93CF93DF93CDB7DEB7F8
:10E5D000AC97DEBFCDBF46E150E069EE7FE0CE01F3
:10E5E00047960F9499FB8BA59CA5892B01F586E195
:10E5F000E0E0F2E0DE01119601900D928A95E1F7DC
:10E600006AE0CE010196D1D59E8B8D8B46E150E01C
:10E6100069EE7FE0CE0101960F94A9FB46E150E040
:10E6200069EE7FE0CE0147960F9499FB06C06BE040
:10E63000CE014796BAD5892BD1F689A59AA5909394
:10E6400023028093220264E771EE84E891EEE3D422
:10E6500067E571EE84E891EEDED48E010B5D1F4F0D
:10E66000F12CF80161918F0170E080E090E042E0D0
:10E6700003D5F3E0FF1611F08EE233D5F39484E076
:10E68000F812EFCF6CE471EE84E891EEC4D47E0111
:10E690009BE1E90EF11C8E01015E1F4FF7016191B4
:10E6A0007F0170E080E090E042E0E6D48EE219D590
:10E6B000E016F10699F761E471EE84E891EEABD4CF
:10E6C000CE0147967C01D12CF70161917F0170E06A
:10E6D00080E090E042E0D0D4F3E0DF1611F08EE26B
:10E6E00000D5D39484E0D812EFCF66E371EE84E8CE
:10E6F00091EE91D4F12CF80161918F0170E080E0EE
:10E7000090E042E0B9D4F5E0FF1611F08EE2E9D4D2
:10E71000F39486E0F812EFCF60E880E090E0EADE64
:10E72000FE0177967F0100E010E0F70161917F0123
:10E730000F5F1F4FC801DEDE02311105B1F764E241
:10E7400071EE84E891EE67D4AC96DEBFCDBFDF9169
:10E75000CF911F910F91FF90EF90DF90089560E1AE
:10E7600080E090E0C7DE80E090E0EEDE803191F462
:10E7700062E180E090E0BEDE80E090E0E5DE8231A4
:10E7800049F460E080E090E0B5DE80E090E0DCDE1F
:10E7900091E0811190E0892F0895CF93DF93EC01F0
:10E7A00065E172EE8AE893EE36D4BE0180E090E037
:10E7B00044E062D460E181E097E09CDEBE0184E049
:10E7C00097E0B1DE62E080E097E094DE61E081E016
:10E7D00097E090DE83E097E0B7DE823221F060E1DF
:10E7E00081E097E087DE83E097E0AEDE823231F7AA
:10E7F000DF91CF9108952F923F924F925F926F9247
:10E800007F928F929F92AF92BF92CF92DF92EF92C0
:10E81000FF920F931F93CF93DF93CDB7DEB7C55110
:10E82000D240DEBFCDBF8C016FE673EE8AE893EE77
:10E83000F2D3B80180E090E044E01ED40115184006
:10E8400028F066E673EE8AE893EEE5D388E297E077
:10E8500095DE8C0169EF71EE8AE893EEDCD3B801A6
:10E8600080E090E044E008D40115110511F400E0C7
:10E8700018E7CE0101966C018CE0E82E82E0F82EBC
:10E8800041E0E41AF10830F19BE0E91692E0F90664
:10E8900019F0E114F10461F462EE71EE8AE893EE8E
:10E8A000BAD3C801A0E0B0E044E0BC01CD01E4D39C
:10E8B0005801AFEFAA1ABA0AC80146DEF6018193E1
:10E8C0006F01A114F0E8BF0619F4A12C18E7B12ECE
:10E8D0008501D6CFB80188E297E025DE60E481E0CB
:10E8E00097E008DE81E097E02FDE8111FBCF66ED37
:10E8F00071EE8AE893EE8FD386E297E03FDEBC01AB
:10E9000080E090E044E0B8D382E192EE60D3DE0193
:10E9100011967D0106E011E001501109D8F0F701D0
:10E920006081818170E0782B80E090E044E0A4D3A6
:10E93000C80187709927892B39F40115110521F039
:10E9400082E192EE44D302C080E2CBD3F2E0EF0E3C
:10E95000F11CE2CFCE0101967C010CE017E0D7015B
:10E960006D917D01C801C6DD0F5F1F4F0231B7E019
:10E970001B07A9F760E573EE8AE893EE4CD3CF80CE
:10E98000D12CDC2CCC248885C80ED11C098510E044
:10E99000102F00278A85080F111DEB84F12CFE2C07
:10E9A000EE248C85E80EF11C61E473EE8AE893EEA8
:10E9B00032D3B70180E090E044E05ED383E393EE8E
:10E9C00006D3B80180E090E044E056D381E293EEB4
:10E9D000FED25601E4E0AE1AB1082501612C712C7B
:10E9E00044E0C301B20148D30330110599F4F9EFB3
:10E9F000EF16F1E0FF0660F480911A0290911B027D
:10EA0000E816F90628F001968E159F0508F042C019
:10EA100000E010E045E0C41642E0D40608F05CC116
:10EA20000330110509F43CC050F50130110509F41B
:10EA30004DC10230110509F051C166E073EE8AE85C
:10EA400093EEE9D28091220290912302A6DE6AEE33
:10EA500072EE8AE893EEDFD2609122027091230277
:10EA600080E090E044E008D310921B0210921A025A
:10EA700010921D0210921C02E2E03E2E3BC10430B7
:10EA8000110509F41CC10530110509F027C162E820
:10EA900072EE17C195E0C91692E0D90608F01CC1C4
:10EAA0006BEF72EE8AE893EEB6D2F0921D02E0921E
:10EAB0001C02C70101976C01E12CF12C59E0CC0C30
:10EAC000DD1CEE1CFF1C5A95D1F7EE24FF24880FA5
:10EAD000892F881F990B9195A0E0B0E0DC01992760
:10EAE0008827C82AD92AEA2AFB2A4C0C5D1C6E1CEE
:10EAF0007F1C81E0481680EF580683E068067104A9
:10EB000040F06CED72EE8AE893EE85D243E0342E4D
:10EB1000F1C061EC72EE8AE893EE7DD246E0C70167
:10EB2000B601AAD2A11492E0B90618F434E0332E4B
:10EB300002C022E0322EAA2021F0AFEFAA1ABA0AB0
:10EB4000FACF66EA72EE8AE893EE65D2C501A0E0DC
:10EB5000B0E044E0BC01CD018FD2C114D104E10486
:10EB6000F10419F4CE010D96D8D19E01235F3F4FD9
:10EB700000E010E0F5013297C35FDD4FF983E883D1
:10EB8000CD50D240D701C6019150A109B109C15F52
:10EB9000DD4F88839983AA83BB83CF50D24055E051
:10EBA00091E1292E0A151B0508F080C0E1E0F0E094
:10EBB000EC0FFD1FE00FF11F8584912C982C882409
:10EBC000D9018C91882A26013701400E511E611C03
:10EBD000711CB1E00401F20160925B00B093570038
:10EBE000E89511240115110549F0C35FDD4FE88157
:10EBF000F981CD50D2400E171F0779F56DEC71EEFB
:10EC00008AE893EECD5EDD4F2883C351D240CC5EBF
:10EC1000DD4F3883C451D240CB5EDD4F5883C551A0
:10EC2000D240F9D1B40180E090E044E025D281ECFB
:10EC300091EECDD144E0C301B2011ED2CB5EDD4FD7
:10EC40005881C551D240CC5EDD4F3881C451D2408D
:10EC5000CD5EDD4F2881C351D2400E5F1F4F0111A1
:10EC600022C0C15FDD4F88819981AA81BB81CF50CD
:10EC7000D240800F911FA11DB11D43E0FC01A09364
:10EC80005B0040935700E89507B600FCFDCFFC0100
:10EC9000A0935B0050935700E89507B600FCFDCFAA
:10ECA00020925700E8952E5F3F4F7CCF84E03812CA
:10ECB00021C064E972EE8AE893EEADD11BC068E82A
:10ECC00072EE8AE893EEA7D1312C14C064E173EEA2
:10ECD0008AE893EEA0D102C000E010E062E772EE95
:10ECE0008AE893EE98D1B80180E090E044E0C4D186
:10ECF00033243394832DCB5EDD4FDEBFCDBFDF9158
:10ED0000CF911F910F91FF90EF90DF90CF90BF9028
:10ED1000AF909F908F907F906F905F904F903F90BB
:10ED20002F90089585E490E038DD66E372EE8AE87E
:10ED300093EE71D16AE272EE8AE893EE6CD1609143
:10ED400022027091230280E090E044E095C1AF92EE
:10ED5000BF92CF92DF92EF92FF920F931F93CF93C8
:10ED6000DF93CDB7DEB7C456D109DEBFCDBF86E293
:10ED700097E004DC811528E0920741F4809122029B
:10ED8000909123020ADD86E297E0F8DB8C01177090
:10ED90000115110509F49FC081E080932502E6D199
:10EDA000C80129DDF82E84E297E0E8DB8C01185ACF
:10EDB00033E0F31681F13F1540F081E0F816F1F0F1
:10EDC000E2E0FE1609F441C007C0F4E0FF1609F4C2
:10EDD00092C025E0F21661F142EA51EE60E070E087
:10EDE0006D5F7F4F2AE030E0CE01019698D48AE033
:10EDF000FE0131966F01E82EEE0E57C045EB51EE45
:10EE000060E070E06D5F7F4F2CE030E0CE01019656
:10EE100086D48CE0EDCF4CEA51EE60E070E06D5F9F
:10EE20007F4F29E030E0CE01019679D489E0E0CF30
:10EE30004BE851EE60E070E06D5F7F4F27E130E01E
:10EE4000CE0101966CD487E1D3CF80911C029091C2
:10EE50001D0220911A0230911B022817390720F455
:10EE600090931B0280931A0269E672EE8AE893EE91
:10EE7000D2D0198284E08A8380911C0290911D0275
:10EE80009B838C8384E0B4CFF60161916F015801BC
:10EE9000FFEFAF1ABF0AC8012DDBA11420E6B206AE
:10EEA00019F4A12C28E5B22E8501EC10EDCFB801A4
:10EEB000785584E297E037DB60E281E097E01ADB87
:10EEC00081E097E041DB8111FBCF6CE472EE8AE8D0
:10EED00093EEA1D002C092E0F92E8CEF8F0D82301C
:10EEE00040F460E181E097E005DB1092250280E0CC
:10EEF00005C081E003C06AE572EEB8CFCC59DF4FA0
:10EF0000DEBFCDBFDF91CF911F910F91FF90EF90AA
:10EF1000DF90CF90BF90AF900895FF920F931F9313
:10EF2000CF93DF93EC018C010F5F1F4FF12C888191
:10EF30008C30B9F06AEB73EE81ED93EE6CD06F2DEF
:10EF400070E080E090E044E097D083EB93EE3FD018
:10EF5000688170E080E090E044E08ED082EA93EE39
:10EF60001FC0F80180818439F1F06AEB73EE81ED06
:10EF700093EE51D06F2D70E06F5F7F4F882777FD44
:10EF80008095982F44E078D083EB93EE20D0F80161
:10EF9000608170E080E090E044E06ED081E993EE23
:10EFA00016D080E00EC0F4E0FF0E24960C5F1F4FD9
:10EFB00084E3F812BCCF65EC73EE81ED93EE2BD0B9
:10EFC00081E0DF91CF911F910F91FF900895CF9233
:10EFD000DF92EF92FF92CF93DF93D0E06C01E12CB0
:10EFE000F12C83E0E80EF11CD701C6018D0F911DB5
:10EFF000A11DB11DABBFFC01C791CC2311F08C2F1B
:10F0000070D0DF5FC111F0CFDF91CF91FF90EF9013
:10F01000DF90CF9008950F931F93CF93DF93EC0170
:10F020008B018BED93EED3DFCE01D1DFC801DF91F1
:10F03000CF911F910F91CBCFCF93DF93FC01208114
:10F04000222331F0EC018991882311F04AD0FBCFC3
:10F05000DF91CF9108950F931F93CF93DF93EC012E
:10F060008B018BED93EEB3DFCE01B1DFC801DF91F1
:10F07000CF911F910F91E0CFCF92DF92EF92FF924D
:10F08000CF936B017C01C42F88ED93EEA0DFCC23DE
:10F09000A9F08C2F90E00197880F991F880F991F76
:10F0A000A701960104C056954795379527958A95EF
:10F0B000D2F7DA01C9011CD0C150E9CFCF91FF903E
:10F0C000EF90DF90CF90089582E08093C00088E1B8
:10F0D0008093C10086E08093C20080E18093C400E9
:10F0E00008959091C00095FFFCCF8093C6000895CD
:10F0F0008F708A3008F0895F805DF3CF8091C00007
:10F1000087FFFCCF8091C00084FD01C0A89580914D
:10F11000C60008958091C00087FF05C027D081E018
:10F120008093240258C081E00895809184009091DA
:10F13000850093FF04C025B1205825B901C02F9840
:10F1400020912002309121028217930750F42091E0
:10F150001E0230911F022F5F3F4F30931F022093FA
:10F160001E02909321028093200208951092850040
:10F170001092840010921F0210921E02089580E0E7
:10F1800090E0DC01ABBFFC0187919691019659F0AC
:10F190002091260230E081E040911E0250911F0232
:10F1A0004217530708F480E0089540E050E020E063
:10F1B00030E070E04617570748F4DC01ED91FD910F
:10F1C000CD012E0F3F1F4F5F5F4FF4CF8827992748
:10F1D000821B930B08952F923F924F925F926F92F2
:10F1E0007F928F929F92AF92BF92CF92DF92EF92D7
:10F1F000FF920F931F93CF93DF93CDB7DEB7C0522B
:10F20000D140DEBFCDBFC25EDE4F1882CE51D140AD
:10F21000812C212C312C412C512C3201C12CD12C90
:10F22000760100E010E040E0C15EDE4F4883CF5140
:10F23000D14064DFC15EDE4F4881CF51D1404330C1
:10F2400001F120F4413071F038F014C0453021F163
:10F25000E0F0463091F17CC08B3131F78BE1882EA4
:10F2600041E0E2CF8826C25EDE4F8883CE51D14096
:10F2700042E0DACF082F10E0102F0027882643E065
:10F28000D3CF082B882644E0CFCF8E3061F6882676
:10F29000212C312C45E0C8CF91012F5F3F4FE1E099
:10F2A000F0E0EC0FFD1FE20DF31D80838826201790
:10F2B000310709F431C21901B7CF8811B4CF4981A0
:10F2C000433109F4E2C060F5463009F4CBC000F5E3
:10F2D000423009F441C0433009F46BC0413009F0B9
:10F2E0009DC11A8288E08B8381E48C8386E58D83BF
:10F2F00082E58E8389E48F8383E5888780E589872B
:10F300008FE58A8782E38B8720E00BE010E08BC1DA
:10F31000413109F45BC008F09CC04031E9F07EC186
:10F32000483109F46EC048F4453109F4AEC008F420
:10F3300025C1463109F422C171C14A3109F454C0D2
:10F3400008F475C04B3109F444C04D3139F066C141
:10F35000473009F4B4CF68CF20E039C08D818033C5
:10F3600039F49F819923B1F09130B1F498E917C035
:10F37000982F907599F0803521F499E0E0E0F0E065
:10F3800005C0883559F4E3E0F0E099E09093570028
:10F39000949105C09EE103C091E001C090E01A8203
:10F3A0001B828C831D829E831F8220E007E010E079
:10F3B0003AC1EA81E059E33028F4F0E0EA5EFD4F1B
:10F3C000808101C080E01A828B833FC021E01A82D5
:10F3D00028C18D81882321F0813021F488E924C05F
:10F3E0008EE122C081E020C01A82E1E0F0E089E0F5
:10F3F00080935700E491EB831C8220E004E010E04E
:10F4000012C18B81803551F48C81883019F4E2E08F
:10F41000F0E006C089E0E0E0F0E003C0E3E0F0E007
:10F4200089E08093570084911A828B83E5CF8D8188
:10F43000836C99E0E1E0F0E0082E90935700E895A6
:10F4400007B600FCFDCF1A821B8220E003E010E02B
:10F45000EAC080EC8A8320E002E010E0412C512CCD
:10F460003201E1C08A81CB80D12CE12CF12C7601D4
:10F47000DD24CC24F82A8D81C82A8C81D82ACC0C92
:10F48000DD1CEE1CFF1C1A82CBC08A8190E0982FF5
:10F4900088272B81822B433109F045C04114F0ECC1
:10F4A0005F06F3E06F06710470F423E0F2016092EE
:10F4B0005B0020935700E89507B600FCFDCF4FEFA7
:10F4C000541A640A740A4B85460157019E01255F50
:10F4D0003F4FD90112969D01FD013197608150E0A7
:10F4E000562B61E00A01F401A0925B006093570083
:10F4F000E8951124E2E08E0E911CA11CB11C02972C
:10F50000009711F04C91E5CF85E0F601E0925B00A9
:10F5100080935700E89507B600FCFDCF81E180930A
:10F520005700E89527C0FE013B969C01B701A60154
:10F5300041BD852E962EA72EBB2482BC4F5F5F4F08
:10F540006F4F7F4FA191A0BDFA9AF99AF999FECF1A
:10F55000215031092115310559F701974C01A12C92
:10F56000B12CFFEF8F1A9F0AAF0ABF0A8C0C9D1CAB
:10F57000AE1CBF1C1A827501640152C02A8130E0A2
:10F58000322F22278B81282B89010D5F1F4F1A8272
:10F590004431B1F4DE011396EBBEF60187919691EA
:10F5A0008C931296FD013197908342E0C40ED11CDA
:10F5B000E11CF11C225031092115310569F72BC0DE
:10F5C000CE0103965C014901D701C60181BD492FD7
:10F5D0005A2F6B2F772742BD0196A11DB11DF89AB6
:10F5E00040B5F50141935F01F1E08F1A9108811454
:10F5F000910461F7C9010197A0E0B0E00196A11D57
:10F60000B11DC80ED91EEA1EFB1EA3E0B0E0AC0F70
:10F61000BD1FA20FB31F1C9220E005C080EC8A839F
:10F6200020E002E010E08BE1C05EDE4F2883C05294
:10F63000D14057DDC25EDE4F8881CE51D14051DDD1
:10F64000A12EBB248A2D4DDD802F4BDD8EE049DDC0
:10F6500025E1822EC25EDE4F4881CE51D140842604
:10F6600080268A24CE0101965C01080F191FC05E16
:10F67000DE4F2881C052D140A016B106B1F0F5018D
:10F6800031915F01832FC05EDE4F2883C052D1408D
:10F69000C15EDE4F3883CF51D14023DDC15EDE4FE6
:10F6A0003881CF51D1408326E2CF882DC05EDE4F16
:10F6B0002883C052D14015DDC25EDE4F4881CE5155
:10F6C000D1404F5FC25EDE4F4883CE51D140C05E15
:10F6D000DE4F2881C052D140222309F4A2CD000080
:10F6E00081E180935700E89580E0C05EDE4FDEBF89
:10F6F000CDBFDF91CF911F910F91FF90EF90DF90E1
:10F70000CF90BF90AF909F908F907F906F905F90C1
:10F710004F903F902F900895180146E085CD6BBF24
:10F72000FA01DC0102C007900D9221503040D8F759
:10F730000895DC01CB01FC01F999FECF06C0F2BDB2
:10F74000E1BDF89A319600B40D9241505040B8F79F
:10F750000895DC01CB0102C02D9105D041505040ED
:10F76000D8F70895262FF999FECF1FBA92BD81BD13
:10F7700020BD0FB6F894FA9AF99A0FBE0196089533
:04F78000F894FFCF2B
:10F78400C0A80001FFFFFF00123456789ABCC0A83D
:0AF79400007879B700000F020A00A8
:040000033000E000E9
:00000001FF
